:020000000C29C9
:10000600033083120313FD00FD0B072800000000D8
:020016000800E0
:020018000800DE
:10001A00023083120313FC00C830FD00FD0B1328C5
:06002A00FC0B1328080086
:1000300083120313D21B1E2886121F288616521BFA
:100040002328061224280616D21A282886112928C1
:100050008615521A2D2806112E2806154B183228FF
:1000600006143328061086140C208610D2193A285C
:1000700086123B28861652193F280612402806167B
:10008000D218442886114528861552184928061189
:100090004A2806154B184E2806144F2806108614B9
:1000A0000C2086104B1C56280D20572803200800D2
:0E00B000831203134A088A00490882000800E0
:1000BE00831203134B105108D20018204B14080062
:1000CE007928803083120313CD008C28C030CD00E8
:1000DE008C289430CD008C28D430CD008C288030E4
:1000EE00CD008C28831203134D08013A031968289A
:1000FE004D08023A03196D284D08033A031970286A
:10010E004D08043A0319732876284E03F0004D0863
:10011E00F0077008CD007008D20018204B10D001E7
:10012E0050084F07840000080319A52850084F07F0
:10013E0084000008D1005F20D00A97284B140800D5
:10014E0083160313861006100611861106128612E8
:10015E0083128610061086120612861106110D20C5
:10016E000D200D208615061586140C2086100D20E8
:10017E0086140C2086100D2086140C2086100D205F
:10018E00061186140C2086100D2086140C20861065
:10019E008611861686140C2086100D2086120615E2
:1001AE0086140C208610061186140C2086100D2045
:1001BE0086140C208610061586140C2086100D2031
:1001CE00061186140C208610861606168615061540
:0C01DE0086140C2086100D204B14080025
:1001EA00A33083120313FC005530FD00FD0BFB28DE
:0601FA00FC0BFB280800CD
:1002000058208A110A128000840AC90A0319CA0AEE
:08021000F003031D00290800A2
:10021800A021A7200130D20018200C30D2001820CD
:100228000130CD000630CE004530CF0067200230C7
:10023800CD000630CE003D30CF0067200330FB00F4
:100248008A30FC005530FD00FD0B2829FC0B2829BD
:10025800FB0B2829000000000130D20018200130D3
:10026800CD000130CE003230CF0067200230CD0003
:100278000530CE002030CF0067200330FB008A30E5
:10028800FC005530FD00FD0B4729FC0B4729FB0BF3
:10029800472900000000CC0104304C0203185A29F9
:1002A8001C30D2001820F520CC0A5029CC01083087
:1002B8004C02031865291830D2001820F520CC0A02
:1002C8005B29CC0108304C02031870291C30D2007D
:0C02D8001820F520CC0A66295A2971294B
:1003400020308400293083120313F0007730C90075
:080350000130CA000021080081
:1002EE0032343034323430342F34323430343234D9
:1002FE0031342034533445345334533449344F3429
:04030E004E34003435
:10031200593459346F346C346F34203459346F3457
:060322006C346F3400345E
:1003280044344934533450344C344134593400340F
:08033800503449344334003411
:04400E00F22F000786
:00000001FF
